:020000040100F9
:1010000000000120011400010000000000000000A9
:1010100000000000000000000000000000000000D0
:1010200000000000000000000000000000000000C0
:101030000000000000000000000000005518000142
:1010400063180001711800017F1800018D1800015C
:101050009B180001A9180001B7180001C51800016C
:10106000D3180001E1180001EF180001FD1800017C
:101070000B19000119190001271900013519000188
:1010800043190001C9160001511900015F1900013F
:101090006D1900017B1900018919000197190001E0
:1010A000A5190001B3190001C1190001CF190001F0
:1010B00000000000DD190001000000000000000039
:1010C000EB190001F919000100000000071A0001E6
:1010D000151A0001231A0001311A00013F1A0001FC
:1010E0004D1A0001000000005B1A00010000000022
:1010F0000000000000000000691A0001771A0001DA
:1011000000000000851A0001931A0001A11A0001D5
:1011100000000000000000000000000000000000CF
:1011200000000000000000000000000000000000BF
:1011300000000000000000000000000000000000AF
:10114000000000000000000000000000000000009F
:1014000080B582B000AF184B7B60184B3B607A68A8
:101410003B689A420ED009E07B681A683B681A6004
:101420007B6804337B603B6804333B603B68104A55
:101430009342F1D30F4B3B6005E03B6800221A60FA
:101440003B6804333B603B680B4A9342F5D30B4B3C
:101450001A680A490A4B13430B6000F013F800BFE7
:101460000837BD4680BD00BFB01B00010000002052
:1014700000000020000000200000002000F00140DB
:101480005A390F202DE9B04384B000AF874B5B6819
:10149000864A43F080635360854800F009FB00F002
:1014A00097F9844BD3F89430824A23F0FF03C2F8B3
:1014B00094300023FB6007E0FB68FF21184600F032
:1014C00031F9FB680133FB60FB680F2BF4DD794BCE
:1014D0000022C3F85421774B0022C3F8CC20754B6F
:1014E000D3F8503123F0FF03724A43F05503C2F89A
:1014F0005031704B4FF47F22C3F8C0200023BB60F3
:1015000016E000BF6B4BD3F850310022984691464D
:10151000002409F0080554EA0503F3D1654ABB68C5
:1015200040339B00134455225A60BB680133BB60B3
:10153000BB68072BE5DD5F4BAA22C3F80C215D4B8E
:10154000AA22C3F810215B4B4FF4EB02C3F8C4206E
:10155000584B594AC3F8C020564BD3F8503123F0AA
:10156000FF03544A43F0AA03C2F85031514B002202
:10157000C3F8CC2000BF4E4BDB6F03F00103002B00
:10158000F9D14B4B11221A604C4BDB684FF2FF0232
:101590001A404A494A4B1343CB604A4B002283F816
:1015A0001123484B4FF400321A6000BF404BDB6FF1
:1015B00003F00103002BF9D13D4B11221A603C4B83
:1015C0005B6903F00103002BF9D0394B1B68212B19
:1015D0000ED100237B6008E07B687A6811461846CC
:1015E00000F0A0F87B6801337B607B680F2BF3DD94
:1015F0002F4B1B68312B31D12E4BD3F8CC302C4ADA
:10160000DBB2136000BF2A4BDB6F03F00103002B3A
:10161000F9D12C4BD3F800315B0C254A03F00103C0
:10162000136000BF224BDB6F03F00103002BF9D1E5
:10163000244BD3F800325B0C1D4A03F00103136006
:1016400000BF1B4BDB6F03F00103002BF9D11D4BD7
:101650001B685B0C164A03F001031360144B1B68F4
:10166000222B17D100233B6011E03B68184600F0A5
:1016700083F803460E4ADBB2136000BF0C4BDB6FEE
:1016800003F00103002BF9D13B6801333B603B6859
:101690000F2BEADD064B064A1B68136000BF044BA4
:1016A000DB6F03F00103002BF9D188E700F0014064
:1016B000007001400000034004300F0000ED00E026
:1016C0000003FA0500E100E080B400AF124BD3F84C
:1016D000CC30124ADBB2136000BF104BDB6F03F05B
:1016E0000103002BF9D10D4B0F221A6000BF0B4BE9
:1016F000DB6F03F00103002BF9D1074B0022C3F885
:10170000CC20074B4FF40032C3F8802100BFBD4608
:101710005DF8047B704700BF00000340007001408B
:1017200000E100E080B483B000AF7860396000BFB2
:10173000104BD3F8803003F00103002BF8D00D4B91
:10174000D3F88C300B4A23F00303C2F88C300949DC
:101750007B683A6841F82320064BD3F88C30054A61
:1017600043F00303C2F88C3000BF0C37BD465DF870
:10177000047B70470000034080B485B000AF786000
:101780000023FB6000BF114BD3F8803003F001034E
:10179000002BF8D00D4BD3F888300C4A23F003030C
:1017A000C2F88830094A7B6852F82330FB60074B47
:1017B000D3F88830054A43F00303C2F88830FB6849
:1017C00018461437BD465DF8047B7047000003409F
:1017D000B0B400AF1D4C5525C4F834511B4C5525F1
:1017E000C4F83851194C5525C4F83C51174C5525AF
:1017F000C4F84051154C5525C4F84451134C144DB0
:10180000C4F84851114C5525C4F84C510F4CD4F82C
:10181000504124F0FF040D4D44F05504C5F85041EB
:1018200000BF0A4CD4F8504100252046294600222A
:1018300001F0080352EA0304F3D1044B0022C3F879
:10184000CC2000BFBD46B0BC704700BF00000340C5
:101850005500008080B400AF00BFBD465DF8047B3A
:10186000704780B400AF00BFBD465DF8047B704791
:1018700080B400AF00BFBD465DF8047B704780B404
:1018800000AF00BFBD465DF8047B704780B400AF79
:1018900000BFBD465DF8047B704780B400AF00BF59
:1018A000BD465DF8047B704780B400AF00BFBD4605
:1018B0005DF8047B704780B400AF00BFBD465DF8A3
:1018C000047B704780B400AF00BFBD465DF8047B69
:1018D000704780B400AF00BFBD465DF8047B704721
:1018E00080B400AF00BFBD465DF8047B704780B494
:1018F00000AF00BFBD465DF8047B704780B400AF09
:1019000000BFBD465DF8047B704780B400AF00BFE8
:10191000BD465DF8047B704780B400AF00BFBD4694
:101920005DF8047B704780B400AF00BFBD465DF832
:10193000047B704780B400AF00BFBD465DF8047BF8
:10194000704780B400AF00BFBD465DF8047B7047B0
:1019500080B400AF00BFBD465DF8047B704780B423
:1019600000AF00BFBD465DF8047B704780B400AF98
:1019700000BFBD465DF8047B704780B400AF00BF78
:10198000BD465DF8047B704780B400AF00BFBD4624
:101990005DF8047B704780B400AF00BFBD465DF8C2
:1019A000047B704780B400AF00BFBD465DF8047B88
:1019B000704780B400AF00BFBD465DF8047B704740
:1019C00080B400AF00BFBD465DF8047B704780B4B3
:1019D00000AF00BFBD465DF8047B704780B400AF28
:1019E00000BFBD465DF8047B704780B400AF00BF08
:1019F000BD465DF8047B704780B400AF00BFBD46B4
:101A00005DF8047B704780B400AF00BFBD465DF851
:101A1000047B704780B400AF00BFBD465DF8047B17
:101A2000704780B400AF00BFBD465DF8047B7047CF
:101A300080B400AF00BFBD465DF8047B704780B442
:101A400000AF00BFBD465DF8047B704780B400AFB7
:101A500000BFBD465DF8047B704780B400AF00BF97
:101A6000BD465DF8047B704780B400AF00BFBD4643
:101A70005DF8047B704780B400AF00BFBD465DF8E1
:101A8000047B704780B400AF00BFBD465DF8047BA7
:101A9000704780B400AF00BFBD465DF8047B70475F
:101AA00080B400AF00BFBD465DF8047B7047000006
:101AB00080B485B000AF7860374B5B68364A43F43A
:101AC000801353607B68354A934211D1324B5B6877
:101AD000314A43F0010353602F4BDB682E4A43F039
:101AE0000103D3602E4B1B682D4A23F00F031360B4
:101AF0007B682C4A934211D1274B5B68264A43F0FE
:101B000004035360244BDB68234A43F00403D3608F
:101B1000234BDB68224A23F07063D3607B68224A40
:101B2000934211D11C4B5B681B4A43F00203536084
:101B3000194BDB68184A43F00203D360184B5B680B
:101B4000174A43F0706353607B68DB6843F08002A0
:101B50007B68DA60104B1B6B4FF47A7202FB03F365
:101B6000FB60FB681B0903F56143104AA2FB0323DA
:101B70001B0CBB60BB68DAB27B681A60BB681B0ACF
:101B8000DAB27B685A607B680322DA6000BF1437E0
:101B9000BD465DF8047B704700F0014000600140E5
:101BA00080D101400040044000700140C5B3A291C3
:0400000501001000E6
:00000001FF
