:020000040100F9
:1010000000000120011400010000000000000000A9
:1010100000000000000000000000000000000000D0
:1010200000000000000000000000000000000000C0
:10103000000000000000000000000000C5160001D4
:10104000D3160001E1160001EF160001FD160001A4
:101050000B170001191700012717000135170001B0
:1010600043170001511700015F1700016D170001C0
:101070007B1700018917000197170001A5170001D0
:10108000B3170001C1170001CF170001DD170001E0
:10109000EB170001F91700010718000115180001EE
:1010A00023180001311800013F1800014D180001FC
:1010B000000000005B1800010000000000000000BC
:1010C0006918000177180001000000008518000170
:1010D00093180001A1180001AF180001BD1800010C
:1010E000CB18000100000000D9180001000000002A
:1010F0000000000000000000E7180001F5180001E2
:101100000000000003190001111900011F1900015E
:1011100000000000000000000000000000000000CF
:1011200000000000000000000000000000000000BF
:1011300000000000000000000000000000000000AF
:10114000000000000000000000000000000000009F
:1014000080B582B000AF184B7B60184B3B607A68A8
:101410003B689A420ED009E07B681A683B681A6004
:101420007B6804337B603B6804333B603B68104A55
:101430009342F1D30F4B3B6005E03B6800221A60FA
:101440003B6804333B603B680B4A9342F5D30B4B3C
:101450001A680A490A4B13430B6000F01BF800BFDF
:101460000837BD4680BD00BF2C1A000100000020D7
:1014700000000020000000200000002000F00140DB
:101480005A390F2080B400AF00BFBD465DF8047B21
:101490007047000080B582B000AF234800F046FAE4
:1014A000224BD3F89430214A23F0FF03C2F8943042
:1014B0001E4B0022C3F8542100F0C4F800237B60C7
:1014C00008E07B687A681146184600F031F87B68BE
:1014D00001337B607B680F2BF3DD00233B600EE064
:1014E0003B681149184600F04DF800BF0E4BDB6F0A
:1014F00003F00103002BF9D13B6801333B603B68EB
:101500000F2BEDDD084B5B6903F00103002BF9D0D5
:10151000054B054A1B68136000BF034BDB6F03F0EC
:101520000103002BF9D1EDE70070014000000340FA
:1015300080B483B000AF7860396000BF104BD3F83F
:10154000803003F00103002BF8D00D4BD3F88C3022
:101550000B4A23F00303C2F88C3009497B683A68D0
:1015600041F82320064BD3F88C30054A43F003039F
:10157000C2F88C3000BF0C37BD465DF8047B704765
:101580000000034080B483B000AF7860396000BFD2
:101590002B4BD3F8803003F00103002BF8D0284BFD
:1015A000D3F88830264A23F00303C2F88830244A4F
:1015B0007B6852F82330DAB23B681A6000BF3B68A0
:1015C000DB6F03F00103002BF9D11D4A7B6852F851
:1015D00023301B0ADAB23B681A6000BF3B68DB6F3E
:1015E00003F00103002BF9D1154A7B6852F8233030
:1015F0001B0CDAB23B681A6000BF3B68DB6F03F07C
:101600000103002BF9D10E4A7B6852F823301B0EE0
:10161000DAB23B681A6000BF3B68DB6F03F001037E
:10162000002BF9D1064BD3F88830054A43F0030369
:10163000C2F8883000BF0C37BD465DF8047B7047A8
:1016400000000340B0B400AF1D4C5525C4F8345120
:101650001B4C5525C4F83851194C5525C4F83C513C
:10166000174C5525C4F84051154C5525C4F8445124
:10167000134C5525C4F84851114C5525C4F84C510C
:101680000F4CD4F8504124F0FF040D4D44F05504A4
:10169000C5F8504100BF0A4CD4F8504100252046FF
:1016A0002946002201F0080352EA0304F3D1044B57
:1016B0000022C3F8CC2000BFBD46B0BC704700BFBD
:1016C0000000034080B400AF00BFBD465DF8047B5E
:1016D000704780B400AF00BFBD465DF8047B704723
:1016E00080B400AF00BFBD465DF8047B704780B496
:1016F00000AF00BFBD465DF8047B704780B400AF0B
:1017000000BFBD465DF8047B704780B400AF00BFEA
:10171000BD465DF8047B704780B400AF00BFBD4696
:101720005DF8047B704780B400AF00BFBD465DF834
:10173000047B704780B400AF00BFBD465DF8047BFA
:10174000704780B400AF00BFBD465DF8047B7047B2
:1017500080B400AF00BFBD465DF8047B704780B425
:1017600000AF00BFBD465DF8047B704780B400AF9A
:1017700000BFBD465DF8047B704780B400AF00BF7A
:10178000BD465DF8047B704780B400AF00BFBD4626
:101790005DF8047B704780B400AF00BFBD465DF8C4
:1017A000047B704780B400AF00BFBD465DF8047B8A
:1017B000704780B400AF00BFBD465DF8047B704742
:1017C00080B400AF00BFBD465DF8047B704780B4B5
:1017D00000AF00BFBD465DF8047B704780B400AF2A
:1017E00000BFBD465DF8047B704780B400AF00BF0A
:1017F000BD465DF8047B704780B400AF00BFBD46B6
:101800005DF8047B704780B400AF00BFBD465DF853
:10181000047B704780B400AF00BFBD465DF8047B19
:10182000704780B400AF00BFBD465DF8047B7047D1
:1018300080B400AF00BFBD465DF8047B704780B444
:1018400000AF00BFBD465DF8047B704780B400AFB9
:1018500000BFBD465DF8047B704780B400AF00BF99
:10186000BD465DF8047B704780B400AF00BFBD4645
:101870005DF8047B704780B400AF00BFBD465DF8E3
:10188000047B704780B400AF00BFBD465DF8047BA9
:10189000704780B400AF00BFBD465DF8047B704761
:1018A00080B400AF00BFBD465DF8047B704780B4D4
:1018B00000AF00BFBD465DF8047B704780B400AF49
:1018C00000BFBD465DF8047B704780B400AF00BF29
:1018D000BD465DF8047B704780B400AF00BFBD46D5
:1018E0005DF8047B704780B400AF00BFBD465DF873
:1018F000047B704780B400AF00BFBD465DF8047B39
:10190000704780B400AF00BFBD465DF8047B7047F0
:1019100080B400AF00BFBD465DF8047B704780B463
:1019200000AF00BFBD465DF8047B704780B485B052
:1019300000AF7860374B5B68364A43F480135360DE
:101940007B68354A934211D1324B5B68314A43F090
:10195000010353602F4BDB682E4A43F00103D36031
:101960002E4B1B682D4A23F00F0313607B682C4A13
:10197000934211D1274B5B68264A43F0040353601E
:10198000244BDB68234A43F00403D360234BDB681A
:10199000224A23F07063D3607B68224A934211D1BC
:1019A0001C4B5B681B4A43F002035360194BDB6816
:1019B000184A43F00203D360184B5B68174A43F0A0
:1019C000706353607B68DB6843F080027B68DA6099
:1019D000104B1B6B4FF47A7202FB03F3FB60FB6846
:1019E0001B0903F56143104AA2FB03231B0CBB60D8
:1019F000BB68DAB27B681A60BB681B0ADAB27B6824
:101A00005A607B680322DA6000BF1437BD465DF878
:101A1000047B704700F001400060014080D101402C
:0C1A20000040044000700140C5B3A291DA
:0400000501001000E6
:00000001FF
