:020000040100F9
:1010000000000120011400010000000000000000A9
:1010100000000000000000000000000000000000D0
:1010200000000000000000000000000000000000C0
:101030000000000000000000000000004118000156
:101040004F1800015D1800016B18000179180001AC
:101050008718000195180001A3180001B1180001BC
:10106000BF180001CD180001DB180001E9180001CC
:10107000F7180001051900011319000121190001D9
:101080002F1900013D1900014B19000159190001E8
:1010900067190001751900018319000191190001F8
:1010A0009F190001AD190001BB190001C919000108
:1010B00000000000D719000100000000000000003F
:1010C000E5190001F319000100000000011A0001F8
:1010D0000F1A00011D1A00012B1A0001391A000114
:1010E000471A000100000000551A0001000000002E
:1010F0000000000000000000631A0001711A0001E6
:10110000000000007F1A00018D1A00019B1A0001E7
:1011100000000000000000000000000000000000CF
:1011200000000000000000000000000000000000BF
:1011300000000000000000000000000000000000AF
:10114000000000000000000000000000000000009F
:1014000080B582B000AF184B7B60184B3B607A68A8
:101410003B689A420ED009E07B681A683B681A6004
:101420007B6804337B603B6804333B603B68104A55
:101430009342F1D30F4B3B6005E03B6800221A60FA
:101440003B6804333B603B680B4A9342F5D30B4B3C
:101450001A680A490A4B13430B6000F01BF800BFDF
:101460000837BD4680BD00BFA81B0001000000205A
:1014700000000020000000200000002000F00140DB
:101480005A390F2080B400AF00BFBD465DF8047B21
:101490007047000080B586B000AF00237B61944B9D
:1014A000944A5A60924B04221A60934800F0FCFA66
:1014B000924BD3F89430914A23F0FF03C2F8943052
:1014C0008E4B0022C3F8542100F07AF900233B61CF
:1014D0000EE03B698849184600F012F900BF864BC0
:1014E000DB6F03F00103002BF9D13B6901333B6152
:1014F0003B690F2BEDDD804B5B6903F00103002B93
:10150000F9D07D4B1B68112B6FD1794B1B68784A42
:1015100043F00103136000BF784BD3F8803003F031
:101520000103002BF8D0754BD3F88C30734A23F0AD
:101530000303C2F88C300023FB6015E06C4B9B6802
:1015400023F07F437A6913447B616C49FA68FB6836
:1015500041F82320664B9B6823F07F437A69D31AB6
:101560007B61FB680133FB60FB680F2BE6DD634B9F
:10157000D3F88C30614A43F00303C2F88C305E4AE2
:101580007B691B0E136000BF5B4BDB6F03F0010335
:10159000002BF9D17B691B0C574ADBB2136000BFEB
:1015A000554BDB6F03F00103002BF9D17B691B0A5C
:1015B000514ADBB2136000BF4F4BDB6F03F00103F6
:1015C000002BF9D14C4A7B69DBB2136000BF4A4B58
:1015D000DB6F03F00103002BF9D100237B61444B47
:1015E0001B68434A23F001031360434B1B68122B13
:1015F00071D100237B603E4B1B683D4A43F00103E1
:10160000136000BF3D4BD3F8803003F00103002B83
:10161000F8D03A4BD3F88830384A23F00303C2F8A5
:1016200088300023BB6015E0314B9B6823F07F437B
:101630007A6913447B61314ABB6852F823307B607E
:101640002B4B9B6823F07F437A69D31A7B61BB687D
:101650000133BB60BB680F2BE6DD284BD3F8883025
:10166000264A43F00303C2F88830234A7B691B0EE5
:10167000136000BF204BDB6F03F00103002BF9D197
:101680007B691B0C1C4ADBB2136000BF1A4BDB6F7B
:1016900003F00103002BF9D17B691B0A164ADBB268
:1016A000136000BF144BDB6F03F00103002BF9D173
:1016B000114A7B69DBB2136000BF0F4BDB6F03F095
:1016C0000103002BF9D100237B61094B1B68084AF9
:1016D00023F001031360084B074A1B68136000BF27
:1016E000054BDB6F03F00103002BF9D103E700BFCB
:1016F00010E000E0007C9200007001400000034018
:1017000080B483B000AF7860396000BF2B4BD3F852
:10171000803003F00103002BF8D0284BD3F8883039
:10172000264A23F00303C2F88830244A7B6852F823
:101730002330DAB23B681A6000BF3B68DB6F03F00E
:101740000103002BF9D11D4A7B6852F823301B0A94
:10175000DAB23B681A6000BF3B68DB6F03F001033D
:10176000002BF9D1154A7B6852F823301B0CDAB2F2
:101770003B681A6000BF3B68DB6F03F00103002B7E
:10178000F9D10E4A7B6852F823301B0EDAB23B685F
:101790001A6000BF3B68DB6F03F00103002BF9D137
:1017A000064BD3F88830054A43F00303C2F888306B
:1017B00000BF0C37BD465DF8047B70470000034056
:1017C000B0B400AF1D4C5525C4F834511B4C552501
:1017D000C4F83851194C5525C4F83C51174C5525BF
:1017E000C4F84051154C5525C4F84451134C5525A7
:1017F000C4F84851114C5525C4F84C510F4CD4F83D
:10180000504124F0FF040D4D44F05504C5F85041FB
:1018100000BF0A4CD4F8504100252046294600223A
:1018200001F0080352EA0304F3D1044B0022C3F889
:10183000CC2000BFBD46B0BC704700BF00000340D5
:1018400080B400AF00BFBD465DF8047B704780B434
:1018500000AF00BFBD465DF8047B704780B400AFA9
:1018600000BFBD465DF8047B704780B400AF00BF89
:10187000BD465DF8047B704780B400AF00BFBD4635
:101880005DF8047B704780B400AF00BFBD465DF8D3
:10189000047B704780B400AF00BFBD465DF8047B99
:1018A000704780B400AF00BFBD465DF8047B704751
:1018B00080B400AF00BFBD465DF8047B704780B4C4
:1018C00000AF00BFBD465DF8047B704780B400AF39
:1018D00000BFBD465DF8047B704780B400AF00BF19
:1018E000BD465DF8047B704780B400AF00BFBD46C5
:1018F0005DF8047B704780B400AF00BFBD465DF863
:10190000047B704780B400AF00BFBD465DF8047B28
:10191000704780B400AF00BFBD465DF8047B7047E0
:1019200080B400AF00BFBD465DF8047B704780B453
:1019300000AF00BFBD465DF8047B704780B400AFC8
:1019400000BFBD465DF8047B704780B400AF00BFA8
:10195000BD465DF8047B704780B400AF00BFBD4654
:101960005DF8047B704780B400AF00BFBD465DF8F2
:10197000047B704780B400AF00BFBD465DF8047BB8
:10198000704780B400AF00BFBD465DF8047B704770
:1019900080B400AF00BFBD465DF8047B704780B4E3
:1019A00000AF00BFBD465DF8047B704780B400AF58
:1019B00000BFBD465DF8047B704780B400AF00BF38
:1019C000BD465DF8047B704780B400AF00BFBD46E4
:1019D0005DF8047B704780B400AF00BFBD465DF882
:1019E000047B704780B400AF00BFBD465DF8047B48
:1019F000704780B400AF00BFBD465DF8047B704700
:101A000080B400AF00BFBD465DF8047B704780B472
:101A100000AF00BFBD465DF8047B704780B400AFE7
:101A200000BFBD465DF8047B704780B400AF00BFC7
:101A3000BD465DF8047B704780B400AF00BFBD4673
:101A40005DF8047B704780B400AF00BFBD465DF811
:101A5000047B704780B400AF00BFBD465DF8047BD7
:101A6000704780B400AF00BFBD465DF8047B70478F
:101A700080B400AF00BFBD465DF8047B704780B402
:101A800000AF00BFBD465DF8047B704780B400AF77
:101A900000BFBD465DF8047B704780B400AF00BF57
:101AA000BD465DF8047B704780B485B000AF7860B8
:101AB000374B5B68364A43F4801353607B68354A82
:101AC000934211D1324B5B68314A43F001035360BA
:101AD0002F4BDB682E4A43F00103D3602E4B1B686B
:101AE0002D4A23F00F0313607B682C4A934211D1D7
:101AF000274B5B68264A43F004035360244BDB68A2
:101B0000234A43F00403D360234BDB68224A23F0CB
:101B10007063D3607B68224A934211D11C4B5B688F
:101B20001B4A43F002035360194BDB68184A43F029
:101B30000203D360184B5B68174A43F0706353602D
:101B40007B68DB6843F080027B68DA60104B1B6BBC
:101B50004FF47A7202FB03F3FB60FB681B0903F589
:101B60006143104AA2FB03231B0CBB60BB68DAB2C3
:101B70007B681A60BB681B0ADAB27B685A607B68B4
:101B80000322DA6000BF1437BD465DF8047B70475E
:101B900000F001400060014080D10140004004405D
:081BA00000700140C5B3A291E1
:0400000501001000E6
:00000001FF
