:020000040100F9
:1010000000000120011400010000000000000000A9
:1010100000000000000000000000000000000000D0
:1010200000000000000000000000000000000000C0
:101030000000000000000000000000001916000180
:101040002716000135160001431600015116000154
:101050005F1600016D1600017B1600018916000164
:1010600097160001A5160001B3160001C116000174
:10107000CF160001DD160001EB160001F916000184
:101080000717000115170001231700013117000190
:101090003F1700014D1700015B17000169170001A0
:1010A000771700018517000193170001A1170001B0
:1010B00000000000AF170001000000000000000069
:1010C000BD170001CB17000100000000D917000177
:1010D000E7170001F51700010318000111180001BE
:1010E0001F180001000000002D1800010000000082
:1010F00000000000000000003B180001491800013A
:101100000000000057180001651800017318000165
:1011100000000000000000000000000000000000CF
:1011200000000000000000000000000000000000BF
:1011300000000000000000000000000000000000AF
:10114000000000000000000000000000000000009F
:1014000080B582B000AF184B7B60184B3B607A68A8
:101410003B689A420ED009E07B681A683B681A6004
:101420007B6804337B603B6804333B603B68104A55
:101430009342F1D30F4B3B6005E03B6800221A60FA
:101440003B6804333B603B680B4A9342F5D30B4B3C
:101450001A680A490A4B13430B6000F01BF800BFDF
:101460000837BD4680BD00BF801900010000002084
:1014700000000020000000200000002000F00140DB
:101480005A390F2080B400AF00BFBD465DF8047B21
:101490007047000080B582B000AF324800F0F0F92C
:1014A000314BD3F89430304A23F0FF03C2F8943024
:1014B0002D4BD3F894302B4ADBB213602A4B002219
:1014C000C3F85421284BD3F85431264A03F00103C2
:1014D000136000BF234BDB6F03F00103002BF9D136
:1014E000204B11221A6000237B6008E07B687A6839
:1014F0001146184600F03AF87B6801337B607B6840
:101500000F2BF3DD174B11221A6000233B6011E013
:101510003B68184600F054F80346124ADBB21360E9
:1015200000BF104BDB6F03F00103002BF9D13B68C8
:1015300001333B603B680F2BEADD0A4B11221A6036
:10154000084B5B6903F00103002BF9D0054B054AFA
:101550001B68136000BF034BDB6F03F00103002B1C
:10156000F9D1EDE7007001400000034080B483B082
:1015700000AF7860396000BF104BD3F8803003F0C3
:101580000103002BF8D00D4BD3F88C300B4A23F01D
:101590000303C2F88C3009497B683A6841F823207C
:1015A000064BD3F88C30054A43F00303C2F88C3065
:1015B00000BF0C37BD465DF8047B70470000034058
:1015C00080B485B000AF78600023FB6000BF114B92
:1015D000D3F8803003F00103002BF8D00D4BD3F883
:1015E00088300C4A23F00303C2F88830094A7B682C
:1015F00052F82330FB60074BD3F88830054A43F09C
:101600000303C2F88830FB6818461437BD465DF8FE
:10161000047B70470000034080B400AF00BFBD46AC
:101620005DF8047B704780B400AF00BFBD465DF835
:10163000047B704780B400AF00BFBD465DF8047BFB
:10164000704780B400AF00BFBD465DF8047B7047B3
:1016500080B400AF00BFBD465DF8047B704780B426
:1016600000AF00BFBD465DF8047B704780B400AF9B
:1016700000BFBD465DF8047B704780B400AF00BF7B
:10168000BD465DF8047B704780B400AF00BFBD4627
:101690005DF8047B704780B400AF00BFBD465DF8C5
:1016A000047B704780B400AF00BFBD465DF8047B8B
:1016B000704780B400AF00BFBD465DF8047B704743
:1016C00080B400AF00BFBD465DF8047B704780B4B6
:1016D00000AF00BFBD465DF8047B704780B400AF2B
:1016E00000BFBD465DF8047B704780B400AF00BF0B
:1016F000BD465DF8047B704780B400AF00BFBD46B7
:101700005DF8047B704780B400AF00BFBD465DF854
:10171000047B704780B400AF00BFBD465DF8047B1A
:10172000704780B400AF00BFBD465DF8047B7047D2
:1017300080B400AF00BFBD465DF8047B704780B445
:1017400000AF00BFBD465DF8047B704780B400AFBA
:1017500000BFBD465DF8047B704780B400AF00BF9A
:10176000BD465DF8047B704780B400AF00BFBD4646
:101770005DF8047B704780B400AF00BFBD465DF8E4
:10178000047B704780B400AF00BFBD465DF8047BAA
:10179000704780B400AF00BFBD465DF8047B704762
:1017A00080B400AF00BFBD465DF8047B704780B4D5
:1017B00000AF00BFBD465DF8047B704780B400AF4A
:1017C00000BFBD465DF8047B704780B400AF00BF2A
:1017D000BD465DF8047B704780B400AF00BFBD46D6
:1017E0005DF8047B704780B400AF00BFBD465DF874
:1017F000047B704780B400AF00BFBD465DF8047B3A
:10180000704780B400AF00BFBD465DF8047B7047F1
:1018100080B400AF00BFBD465DF8047B704780B464
:1018200000AF00BFBD465DF8047B704780B400AFD9
:1018300000BFBD465DF8047B704780B400AF00BFB9
:10184000BD465DF8047B704780B400AF00BFBD4665
:101850005DF8047B704780B400AF00BFBD465DF803
:10186000047B704780B400AF00BFBD465DF8047BC9
:10187000704780B400AF00BFBD465DF8047B704781
:1018800080B485B000AF7860374B5B68364A43F46C
:10189000801353607B68354A934211D1324B5B68A9
:1018A000314A43F0010353602F4BDB682E4A43F06B
:1018B0000103D3602E4B1B682D4A23F00F031360E6
:1018C0007B682C4A934211D1274B5B68264A43F030
:1018D00004035360244BDB68234A43F00403D360C2
:1018E000234BDB68224A23F07063D3607B68224A73
:1018F000934211D11C4B5B681B4A43F002035360B7
:10190000194BDB68184A43F00203D360184B5B683D
:10191000174A43F0706353607B68DB6843F08002D2
:101920007B68DA60104B1B6B4FF47A7202FB03F397
:10193000FB60FB681B0903F56143104AA2FB03230C
:101940001B0CBB60BB68DAB27B681A60BB681B0A01
:10195000DAB27B685A607B680322DA6000BF143712
:10196000BD465DF8047B704700F001400060014017
:1019700080D101400040044000700140C5B3A291F5
:0400000501001000E6
:00000001FF
