:020000040100F9
:1010000000000120011400010000000000000000A9
:1010100000000000000000000000000000000000D0
:1010200000000000000000000000000000000000C0
:101030000000000000000000000000009D180001FA
:10104000AB180001B9180001C7180001D51800013C
:10105000E3180001F1180001FF1800010D1900014B
:101060001B19000129190001371900014519000158
:1010700053190001611900016F1900017D19000168
:101080008B1900011117000199190001A71900011E
:10109000B5190001C3190001D1190001DF190001C0
:1010A000ED190001FB190001091A0001171A0001CE
:1010B00000000000251A00010000000000000000F0
:1010C000331A0001411A0001000000004F1A00010C
:1010D0005D1A00016B1A0001791A0001871A0001DC
:1010E000951A000100000000A31A00010000000092
:1010F0000000000000000000B11A0001BF1A00014A
:1011000000000000CD1A0001DB1A0001E91A0001FD
:1011100000000000000000000000000000000000CF
:1011200000000000000000000000000000000000BF
:1011300000000000000000000000000000000000AF
:10114000000000000000000000000000000000009F
:1014000080B582B000AF184B7B60184B3B607A68A8
:101410003B689A420ED009E07B681A683B681A6004
:101420007B6804337B603B6804333B603B68104A55
:101430009342F1D30F4B3B6005E03B6800221A60FA
:101440003B6804333B603B680B4A9342F5D30B4B3C
:101450001A680A490A4B13430B6000F013F800BFE7
:101460000837BD4680BD00BFF81B0001000000200A
:1014700000000020000000200000002000F00140DB
:101480005A390F202DE9B04F8AB000AF9A4B5B68F4
:10149000994A43F080635360984800F02DFB00F0B8
:1014A000BBF9974BD3F89430954A23F0FF03C2F869
:1014B000943000237B6207E07B6AFF21184600F02E
:1014C00055F97B6A01337B627B6A0F2BF4DD00BF29
:1014D0008A4BDB6F03F00103002BF9D1874B1122FC
:1014E0001A60874B0022C3F8CC20854BD3F85031CB
:1014F00023F0FF03824A43F05503C2F8503100BF86
:101500007F4BD3F8503100223B617A614FF0000AE3
:101510007B6903F0080B5AEA0B03F1D1784B0022E8
:10152000C3F8542100233B6218E000BF744BD3F88A
:1015300050310022BB60FA604FF00008FB6803F0F6
:10154000080958EA0903F1D16D4A3B6A40339B0010
:101550001344AA225A603B6A01333B623B6A052B63
:10156000E3DD674B5522C3F81C21654B5522C3F8B8
:10157000202100BF624BD3F8503100223B607A60DB
:1015800000247B6803F0080554EA0503F2D15C4BA4
:101590004FF47F22C3F8C020594B4FF4D022C3F838
:1015A000C420574BD3F8503123F0FF03544A43F083
:1015B000AA03C2F8503100BF504BDB6F03F00103A8
:1015C000002BF9D14D4B11221A604E4BDB684FF2C4
:1015D000FF021A404B494C4B1343CB604B4B00224C
:1015E00083F81123494B4FF400321A6000BF434B7C
:1015F000DB6F03F00103002BF9D1404B11221A607D
:101600003E4B5B6903F00103002BF9D03B4B1B6899
:10161000212B0ED10023FB6108E0FB69FA6911461A
:10162000184600F0A3F8FB690133FB61FB690F2B3F
:10163000F3DD324B1B68312B35D1314BD3F8CC3035
:101640002E4ADBB2136000BF2C4BDB6F03F00103AB
:10165000002BF9D12D4BD3F800315B0C274A03F056
:101660000103136000BF254BDB6F03F00103002B68
:10167000F9D1264BD3F800325B0C204A03F001036A
:10168000136000BF1D4BDB6F03F00103002BF9D18A
:101690001E4B4FF400321A601C4B1B685B0C174A40
:1016A00003F001031360154B1B68222B17D1002395
:1016B000BB6111E0BB69184600F082F803460F4A8F
:1016C000DBB2136000BF0D4BDB6F03F00103002B97
:1016D000F9D1BB690133BB61BB690F2BEADD074B55
:1016E000064A1B68136000BF044BDB6F03F0010365
:1016F000002BF9D184E700BF00F0014000700140E9
:101700000000034000ED00E00003FA0500E100E006
:1017100080B400AF124BD3F8CC30124ADBB2136066
:1017200000BF104BDB6F03F00103002BF9D10D4B11
:101730000F221A6000BF0B4BDB6F03F00103002B7D
:10174000F9D1074B0022C3F8CC20074B4FF40032ED
:10175000C3F8802100BFBD465DF8047B704700BF21
:10176000000003400070014000E100E080B483B05D
:1017700000AF7860396000BF104BD3F8803003F0C1
:101780000103002BF8D00D4BD3F88C300B4A23F01B
:101790000303C2F88C3009497B683A6841F823207A
:1017A000064BD3F88C30054A43F00303C2F88C3063
:1017B00000BF0C37BD465DF8047B70470000034056
:1017C00080B485B000AF78600023FB6000BF114B90
:1017D000D3F8803003F00103002BF8D00D4BD3F881
:1017E00088300C4A23F00303C2F88830094A7B682A
:1017F00052F82330FB60074BD3F88830054A43F09A
:101800000303C2F88830FB6818461437BD465DF8FC
:10181000047B704700000340B0B400AF1D4C552559
:10182000C4F834511B4C5525C4F83851194C552572
:10183000C4F83C51174C5525C4F84051154C55255A
:10184000C4F84451134C144DC4F84851114C55255B
:10185000C4F84C510F4CD4F8504124F0FF040D4D06
:1018600044F05504C5F8504100BF0A4CD4F850412B
:10187000002520462946002201F0080352EA03040D
:10188000F3D1044B0022C3F8CC2000BFBD46B0BC4E
:10189000704700BF000003405500008080B400AFD7
:1018A00000BFBD465DF8047B704780B400AF00BF49
:1018B000BD465DF8047B704780B400AF00BFBD46F5
:1018C0005DF8047B704780B400AF00BFBD465DF893
:1018D000047B704780B400AF00BFBD465DF8047B59
:1018E000704780B400AF00BFBD465DF8047B704711
:1018F00080B400AF00BFBD465DF8047B704780B484
:1019000000AF00BFBD465DF8047B704780B400AFF8
:1019100000BFBD465DF8047B704780B400AF00BFD8
:10192000BD465DF8047B704780B400AF00BFBD4684
:101930005DF8047B704780B400AF00BFBD465DF822
:10194000047B704780B400AF00BFBD465DF8047BE8
:10195000704780B400AF00BFBD465DF8047B7047A0
:1019600080B400AF00BFBD465DF8047B704780B413
:1019700000AF00BFBD465DF8047B704780B400AF88
:1019800000BFBD465DF8047B704780B400AF00BF68
:10199000BD465DF8047B704780B400AF00BFBD4614
:1019A0005DF8047B704780B400AF00BFBD465DF8B2
:1019B000047B704780B400AF00BFBD465DF8047B78
:1019C000704780B400AF00BFBD465DF8047B704730
:1019D00080B400AF00BFBD465DF8047B704780B4A3
:1019E00000AF00BFBD465DF8047B704780B400AF18
:1019F00000BFBD465DF8047B704780B400AF00BFF8
:101A0000BD465DF8047B704780B400AF00BFBD46A3
:101A10005DF8047B704780B400AF00BFBD465DF841
:101A2000047B704780B400AF00BFBD465DF8047B07
:101A3000704780B400AF00BFBD465DF8047B7047BF
:101A400080B400AF00BFBD465DF8047B704780B432
:101A500000AF00BFBD465DF8047B704780B400AFA7
:101A600000BFBD465DF8047B704780B400AF00BF87
:101A7000BD465DF8047B704780B400AF00BFBD4633
:101A80005DF8047B704780B400AF00BFBD465DF8D1
:101A9000047B704780B400AF00BFBD465DF8047B97
:101AA000704780B400AF00BFBD465DF8047B70474F
:101AB00080B400AF00BFBD465DF8047B704780B4C2
:101AC00000AF00BFBD465DF8047B704780B400AF37
:101AD00000BFBD465DF8047B704780B400AF00BF17
:101AE000BD465DF8047B704780B400AF00BFBD46C3
:101AF0005DF8047B7047000080B485B000AF78606B
:101B0000374B5B68364A43F4801353607B68354A31
:101B1000934211D1324B5B68314A43F00103536069
:101B20002F4BDB682E4A43F00103D3602E4B1B681A
:101B30002D4A23F00F0313607B682C4A934211D186
:101B4000274B5B68264A43F004035360244BDB6851
:101B5000234A43F00403D360234BDB68224A23F07B
:101B60007063D3607B68224A934211D11C4B5B683F
:101B70001B4A43F002035360194BDB68184A43F0D9
:101B80000203D360184B5B68174A43F070635360DD
:101B90007B68DB6843F080027B68DA60104B1B6B6C
:101BA0004FF47A7202FB03F3FB60FB681B0903F539
:101BB0006143104AA2FB03231B0CBB60BB68DAB273
:101BC0007B681A60BB681B0ADAB27B685A607B6864
:101BD0000322DA6000BF1437BD465DF8047B70470E
:101BE00000F001400060014080D10140004004400D
:081BF00000700140C5B3A29191
:0400000501001000E6
:00000001FF
