:020000040100F9
:1010000000000120011400010000000000000000A9
:1010100000000000000000000000000000000000D0
:1010200000000000000000000000000000000000C0
:10103000000000000000000000000000E5170001B3
:10104000F3170001011800010F1800011D1800011D
:101050002B1800013918000147180001551800012C
:1010600063180001711800017F1800018D1800013C
:101070009B180001A9180001B7180001C51800014C
:10108000D3180001DD160001E1180001EF1800017E
:10109000FD1800010B1900011919000127190001A1
:1010A0003519000143190001511900015F190001B0
:1010B000000000006D1900010000000000000000A9
:1010C0007B19000189190001000000009719000137
:1010D000A5190001B3190001C1190001CF190001C0
:1010E000DD19000100000000EB1900010000000004
:1010F0000000000000000000F9190001071A0001BB
:1011000000000000151A0001231A0001311A000125
:1011100000000000000000000000000000000000CF
:1011200000000000000000000000000000000000BF
:1011300000000000000000000000000000000000AF
:10114000000000000000000000000000000000009F
:1014000080B582B000AF184B7B60184B3B607A68A8
:101410003B689A420ED009E07B681A683B681A6004
:101420007B6804337B603B6804333B603B68104A55
:101430009342F1D30F4B3B6005E03B6800221A60FA
:101440003B6804333B603B680B4A9342F5D30B4B3C
:101450001A680A490A4B13430B6000F013F800BFE7
:101460000837BD4680BD00BF401B000100000020C2
:1014700000000020000000200000002000F00140DB
:101480005A390F202DE9B04F86B000AF8B4B8C4AF4
:101490009A60BFF34F8F8B4B5B688A4A43F080633F
:1014A0005360884BDB68874A43F00203D360864869
:1014B00000F0C6FA854BD3F8CC30834ADBB2136018
:1014C00000BF814BDB6F03F00103002BF9D17F4B91
:1014D0000022C3F8CC207D4BD3F8503123F0FF031A
:1014E0007A4A43F05503C2F8503100BF774BD3F826
:1014F000503100223B607A604FF000087B6803F0B7
:10150000080958EA0903F1D1704B4FF4B022C3F82F
:10151000C4206E4B4FF47F22C3F8C02000237B61B0
:1015200016E000BF694BD3F8503100229A4693462B
:1015300000240BF0080554EA0503F3D1634A7B69E4
:1015400040339B001344AA225A607B6901337B61BC
:101550007B69052BE5DD5D4B5522C3F81C215B4BF8
:101560005522C3F82021594BD3F8503123F0FF0303
:10157000564A43F0AA03C2F85031544B5522C3F8DF
:101580003421524B5522C3F83821504B5522C3F811
:101590003C214E4B5522C3F840214C4B5522C3F8F9
:1015A00044214A4B4A4AC3F84821484B5522C3F8C4
:1015B0004C21424B474ADA60474B202283F81123E3
:1015C000454B4FF0FF321A603F4B5B6903F001035C
:1015D000002BF9D03C4B1B68212B0ED100233B6123
:1015E00008E03B693A691146184600F0A5F83B69E6
:1015F00001333B613B690F2BF3DD334B1B68312B10
:1016000033D1324BD3F8CC302F4ADBB2136000BF5A
:101610002D4BDB6F03F00103002BF9D12E4BD3F8D8
:1016200000315B0C284A03F00103136000BF264B16
:10163000DB6F03F00103002BF9D1274BD3F8003205
:101640005B0C214A03F00103136000BF1E4BDB6FEC
:1016500003F00103002BF9D11F4B1B681A4A9B0BA7
:1016600013601D4B4FF400321A60174B1B68222B7E
:1016700017D10023FB6011E0FB68184600F086F8E4
:101680000346114ADBB2136000BF0F4BDB6F03F060
:101690000103002BF9D1FB680133FB60FB680F2BC2
:1016A000EADD094B084A1B68136000BF064BDB6F7D
:1016B00003F00103002BF9D186E700BF00ED00E045
:1016C0000010000100F001400060014000000340F4
:1016D000550000800004FA0500E100E080B400AF8E
:1016E000124BD3F8CC30124ADBB2136000BF104B60
:1016F000DB6F03F00103002BF9D10D4B0F221A60B1
:1017000000BF0B4BDB6F03F00103002BF9D1074B3C
:101710000022C3F8CC20074B4FF40032C3F88021DD
:1017200000BFBD465DF8047B704700BF000003406A
:101730000060014000E100E080B483B000AF786059
:10174000396000BF104BD3F8803003F00103002B49
:10175000F8D00D4BD3F88C300B4A23F00303C2F8BA
:101760008C3009497B683A6841F82320064BD3F84E
:101770008C30054A43F00303C2F88C3000BF0C37AD
:10178000BD465DF8047B70470000034080B485B01F
:1017900000AF78600023FB6000BF114BD3F88030AE
:1017A00003F00103002BF8D00D4BD3F888300C4A1E
:1017B00023F00303C2F88830094A7B6852F82330CB
:1017C000FB60074BD3F88830054A43F00303C2F8A7
:1017D0008830FB6818461437BD465DF8047B7047B7
:1017E0000000034080B400AF00BFBD465DF8047B3D
:1017F000704780B400AF00BFBD465DF8047B704702
:1018000080B400AF00BFBD465DF8047B704780B474
:1018100000AF00BFBD465DF8047B704780B400AFE9
:1018200000BFBD465DF8047B704780B400AF00BFC9
:10183000BD465DF8047B704780B400AF00BFBD4675
:101840005DF8047B704780B400AF00BFBD465DF813
:10185000047B704780B400AF00BFBD465DF8047BD9
:10186000704780B400AF00BFBD465DF8047B704791
:1018700080B400AF00BFBD465DF8047B704780B404
:1018800000AF00BFBD465DF8047B704780B400AF79
:1018900000BFBD465DF8047B704780B400AF00BF59
:1018A000BD465DF8047B704780B400AF00BFBD4605
:1018B0005DF8047B704780B400AF00BFBD465DF8A3
:1018C000047B704780B400AF00BFBD465DF8047B69
:1018D000704780B400AF00BFBD465DF8047B704721
:1018E00080B400AF00BFBD465DF8047B704780B494
:1018F00000AF00BFBD465DF8047B704780B400AF09
:1019000000BFBD465DF8047B704780B400AF00BFE8
:10191000BD465DF8047B704780B400AF00BFBD4694
:101920005DF8047B704780B400AF00BFBD465DF832
:10193000047B704780B400AF00BFBD465DF8047BF8
:10194000704780B400AF00BFBD465DF8047B7047B0
:1019500080B400AF00BFBD465DF8047B704780B423
:1019600000AF00BFBD465DF8047B704780B400AF98
:1019700000BFBD465DF8047B704780B400AF00BF78
:10198000BD465DF8047B704780B400AF00BFBD4624
:101990005DF8047B704780B400AF00BFBD465DF8C2
:1019A000047B704780B400AF00BFBD465DF8047B88
:1019B000704780B400AF00BFBD465DF8047B704740
:1019C00080B400AF00BFBD465DF8047B704780B4B3
:1019D00000AF00BFBD465DF8047B704780B400AF28
:1019E00000BFBD465DF8047B704780B400AF00BF08
:1019F000BD465DF8047B704780B400AF00BFBD46B4
:101A00005DF8047B704780B400AF00BFBD465DF851
:101A1000047B704780B400AF00BFBD465DF8047B17
:101A2000704780B400AF00BFBD465DF8047B7047CF
:101A300080B400AF00BFBD465DF8047B7047000076
:101A400080B485B000AF7860374B5B68364A43F4AA
:101A5000801353607B68354A934211D1324B5B68E7
:101A6000314A43F0010353602F4BDB682E4A43F0A9
:101A70000103D3602E4B1B682D4A23F00F03136024
:101A80007B682C4A934211D1274B5B68264A43F06E
:101A900004035360244BDB68234A43F00403D36000
:101AA000234BDB68224A23F07063D3607B68224AB1
:101AB000934211D11C4B5B681B4A43F002035360F5
:101AC000194BDB68184A43F00203D360184B5B687C
:101AD000174A43F0706353607B68DB6843F0800211
:101AE0007B68DA60104B1B6B4FF47A7202FB03F3D6
:101AF000FB60FB681B0903F56143104AA2FB03234B
:101B00001B0CBB60BB68DAB27B681A60BB681B0A3F
:101B1000DAB27B685A607B680322DA6000BF143750
:101B2000BD465DF8047B704700F001400060014055
:101B300080D101400040044000700140C5B3A29133
:0400000501001000E6
:00000001FF
