:020000040100F9
:1010000000000120011400010000000000000000A9
:1010100000000000000000000000000000000000D0
:1010200000000000000000000000000000000000C0
:10103000000000000000000000000000C1180001D6
:10104000CF180001DD180001EB180001F9180001AC
:1010500007190001151900012319000131190001B8
:101060003F1900014D1900015B19000169190001C8
:10107000771900018519000193190001A1190001D8
:10108000AF19000135170001BD190001CB1900018E
:10109000D9190001E7190001F5190001031A00012F
:1010A000111A00011F1A00012D1A00013B1A00013C
:1010B00000000000491A00010000000000000000CC
:1010C000571A0001651A000100000000731A0001A0
:1010D000811A00018F1A00019D1A0001AB1A00014C
:1010E000B91A000100000000C71A0001000000004A
:1010F0000000000000000000D51A0001E31A000102
:1011000000000000F11A0001FF1A00010D1B000190
:1011100000000000000000000000000000000000CF
:1011200000000000000000000000000000000000BF
:1011300000000000000000000000000000000000AF
:10114000000000000000000000000000000000009F
:1014000080B582B000AF184B7B60184B3B607A68A8
:101410003B689A420ED009E07B681A683B681A6004
:101420007B6804337B603B6804333B603B68104A55
:101430009342F1D30F4B3B6005E03B6800221A60FA
:101440003B6804333B603B680B4A9342F5D30B4B3C
:101450001A680A490A4B13430B6000F013F800BFE7
:101460000837BD4680BD00BF1C1C000100000020E5
:1014700000000020000000200000002000F00140DB
:101480005A390F2080B584B000AFA44B5B68A34AE3
:1014900043F080635360A24800F040FB00F0CEF9B7
:1014A000A04B0022C3F8CC209E4BD3F894309D4A29
:1014B00023F0FF03C2F894309A4B0122C3F8C820EE
:1014C000984BF022C3F8D4200023FB6007E0FB68B0
:1014D000FF21184600F05CF9FB680133FB60FB68F4
:1014E0000F2BF4DD00BF8E4BDB6F03F00103002BED
:1014F000F9D18B4B11221A608B4BDB684FF2FF0244
:101500001A408949894B1343CB60894B002283F8E9
:101510001123874B4FF400321A6000BF804BDB6F02
:1015200003F00103002BF9D17D4B11221A607C4B93
:101530005B6903F00103002BF9D0794B1B68212B69
:101540000ED10023BB6008E0BB68BA68114618469C
:1015500000F01EF9BB680133BB60BB680F2BF3DDE5
:101560006F4B1B68312B35D16E4BD3F8CC306C4AA6
:10157000DBB2136000BF6A4BDB6F03F00103002B8B
:10158000F9D16B4BD3F800315B0C654A03F00103D2
:10159000136000BF624BDB6F03F00103002BF9D136
:1015A000634BD3F800325B0C5D4A03F00103136018
:1015B00000BF5B4BDB6F03F00103002BF9D15C4BE9
:1015C0001B685B0C564A03F001031360584B4FF441
:1015D00000321A60524B1B68322B6BD1514B0022E8
:1015E000C3F8D8204F4BD3F8D4304E4A43F0010310
:1015F000C2F8D4304B4BD3F8CC301B0E484ADBB288
:10160000136000BF464BDB6F03F00103002BF9D1E1
:10161000444BD3F8CC301B0C414ADBB2136000BF03
:101620003F4BDB6F03F00103002BF9D13D4BD3F8A7
:10163000CC301B0A3A4ADBB2136000BF384BDB6F79
:1016400003F00103002BF9D1364BD3F8CC30344AE8
:10165000DBB2136000BF324BDB6F03F00103002BE2
:10166000F9D1334BD3F800315B0C2D4A03F0010361
:10167000136000BF2A4BDB6F03F00103002BF9D18D
:101680002B4BD3F800325B0C254A03F001031360A7
:1016900000BF234BDB6F03F00103002BF9D1244B78
:1016A0001B685B0C1E4A03F001031360204B4FF4D0
:1016B00000321A601A4B1B68332B06D1194BD3F832
:1016C000D430184A103BC2F8D430154B1B68222B7B
:1016D00017D100237B6011E07B68184600F082F888
:1016E00003460F4ADBB2136000BF0D4BDB6F03F004
:1016F0000103002BF9D17B6801337B607B680F2BE2
:10170000EADD074B064A1B68136000BF044BDB6F22
:1017100003F00103002BF9D109E700BF00F00140FD
:10172000007001400000034000ED00E00003FA05F6
:1017300000E100E080B400AF124BD3F8CC30124A85
:10174000DBB2136000BF104BDB6F03F00103002B13
:10175000F9D10D4B0F221A6000BF0B4BDB6F03F06A
:101760000103002BF9D1074B0022C3F8CC20074B13
:101770004FF40032C3F8802100BFBD465DF8047B02
:10178000704700BF000003400070014000E100E02E
:1017900080B483B000AF7860396000BF104BD3F8DD
:1017A000803003F00103002BF8D00D4BD3F88C30C0
:1017B0000B4A23F00303C2F88C3009497B683A686E
:1017C00041F82320064BD3F88C30054A43F003033D
:1017D000C2F88C3000BF0C37BD465DF8047B704703
:1017E0000000034080B485B000AF78600023FB6048
:1017F00000BF114BD3F8803003F00103002BF8D069
:101800000D4BD3F888300C4A23F00303C2F888301C
:10181000094A7B6852F82330FB60074BD3F88830C5
:10182000054A43F00303C2F88830FB6818461437B2
:10183000BD465DF8047B704700000340B0B400AFC4
:101840001D4C5525C4F834511B4C5525C4F838514E
:10185000194C5525C4F83C51174C5525C4F8405136
:10186000154C5525C4F84451134C144DC4F8485137
:10187000114C5525C4F84C510F4CD4F8504124F06C
:10188000FF040D4D44F05504C5F8504100BF0A4C0B
:10189000D4F85041002520462946002201F00803D3
:1018A00052EA0304F3D1044B0022C3F8CC2000BF5A
:1018B000BD46B0BC704700BF00000340550000802B
:1018C00080B400AF00BFBD465DF8047B704780B4B4
:1018D00000AF00BFBD465DF8047B704780B400AF29
:1018E00000BFBD465DF8047B704780B400AF00BF09
:1018F000BD465DF8047B704780B400AF00BFBD46B5
:101900005DF8047B704780B400AF00BFBD465DF852
:10191000047B704780B400AF00BFBD465DF8047B18
:10192000704780B400AF00BFBD465DF8047B7047D0
:1019300080B400AF00BFBD465DF8047B704780B443
:1019400000AF00BFBD465DF8047B704780B400AFB8
:1019500000BFBD465DF8047B704780B400AF00BF98
:10196000BD465DF8047B704780B400AF00BFBD4644
:101970005DF8047B704780B400AF00BFBD465DF8E2
:10198000047B704780B400AF00BFBD465DF8047BA8
:10199000704780B400AF00BFBD465DF8047B704760
:1019A00080B400AF00BFBD465DF8047B704780B4D3
:1019B00000AF00BFBD465DF8047B704780B400AF48
:1019C00000BFBD465DF8047B704780B400AF00BF28
:1019D000BD465DF8047B704780B400AF00BFBD46D4
:1019E0005DF8047B704780B400AF00BFBD465DF872
:1019F000047B704780B400AF00BFBD465DF8047B38
:101A0000704780B400AF00BFBD465DF8047B7047EF
:101A100080B400AF00BFBD465DF8047B704780B462
:101A200000AF00BFBD465DF8047B704780B400AFD7
:101A300000BFBD465DF8047B704780B400AF00BFB7
:101A4000BD465DF8047B704780B400AF00BFBD4663
:101A50005DF8047B704780B400AF00BFBD465DF801
:101A6000047B704780B400AF00BFBD465DF8047BC7
:101A7000704780B400AF00BFBD465DF8047B70477F
:101A800080B400AF00BFBD465DF8047B704780B4F2
:101A900000AF00BFBD465DF8047B704780B400AF67
:101AA00000BFBD465DF8047B704780B400AF00BF47
:101AB000BD465DF8047B704780B400AF00BFBD46F3
:101AC0005DF8047B704780B400AF00BFBD465DF891
:101AD000047B704780B400AF00BFBD465DF8047B57
:101AE000704780B400AF00BFBD465DF8047B70470F
:101AF00080B400AF00BFBD465DF8047B704780B482
:101B000000AF00BFBD465DF8047B704780B400AFF6
:101B100000BFBD465DF8047B7047000080B485B00F
:101B200000AF7860374B5B68364A43F480135360EC
:101B30007B68354A934211D1324B5B68314A43F09E
:101B4000010353602F4BDB682E4A43F00103D3603F
:101B50002E4B1B682D4A23F00F0313607B682C4A21
:101B6000934211D1274B5B68264A43F0040353602C
:101B7000244BDB68234A43F00403D360234BDB6828
:101B8000224A23F07063D3607B68224A934211D1CA
:101B90001C4B5B681B4A43F002035360194BDB6824
:101BA000184A43F00203D360184B5B68174A43F0AE
:101BB000706353607B68DB6843F080027B68DA60A7
:101BC000104B1B6B4FF47A7202FB03F3FB60FB6854
:101BD0001B0903F56143104AA2FB03231B0CBB60E6
:101BE000BB68DAB27B681A60BB681B0ADAB27B6832
:101BF0005A607B680322DA6000BF1437BD465DF887
:101C0000047B704700F001400060014080D101403A
:0C1C10000040044000700140C5B3A291E8
:0400000501001000E6
:00000001FF
